{
  "contractName": "ClinicalTrial",
  "abi": [
    {
      "constant": true,
      "inputs": [],
      "name": "startDate",
      "outputs": [
        {
          "name": "",
          "type": "uint256"
        }
      ],
      "payable": false,
      "stateMutability": "view",
      "type": "function"
    },
    {
      "constant": true,
      "inputs": [],
      "name": "proposalId",
      "outputs": [
        {
          "name": "",
          "type": "uint256"
        }
      ],
      "payable": false,
      "stateMutability": "view",
      "type": "function"
    },
    {
      "constant": true,
      "inputs": [],
      "name": "createdDate",
      "outputs": [
        {
          "name": "",
          "type": "uint256"
        }
      ],
      "payable": false,
      "stateMutability": "view",
      "type": "function"
    },
    {
      "constant": true,
      "inputs": [],
      "name": "drugName",
      "outputs": [
        {
          "name": "",
          "type": "string"
        }
      ],
      "payable": false,
      "stateMutability": "view",
      "type": "function"
    },
    {
      "constant": true,
      "inputs": [],
      "name": "endDate",
      "outputs": [
        {
          "name": "",
          "type": "uint256"
        }
      ],
      "payable": false,
      "stateMutability": "view",
      "type": "function"
    },
    {
      "constant": true,
      "inputs": [],
      "name": "ipfsHash",
      "outputs": [
        {
          "name": "",
          "type": "bytes"
        }
      ],
      "payable": false,
      "stateMutability": "view",
      "type": "function"
    },
    {
      "inputs": [
        {
          "name": "_regulator",
          "type": "address"
        },
        {
          "name": "_cro",
          "type": "address"
        },
        {
          "name": "_proposalId",
          "type": "uint256"
        },
        {
          "name": "_startDate",
          "type": "uint256"
        },
        {
          "name": "_endDate",
          "type": "uint256"
        },
        {
          "name": "_drugName",
          "type": "string"
        },
        {
          "name": "_ipfsHash",
          "type": "bytes"
        }
      ],
      "payable": false,
      "stateMutability": "nonpayable",
      "type": "constructor"
    },
    {
      "anonymous": false,
      "inputs": [
        {
          "indexed": false,
          "name": "msgSender",
          "type": "address"
        },
        {
          "indexed": false,
          "name": "msg",
          "type": "bytes32"
        },
        {
          "indexed": false,
          "name": "timestamp",
          "type": "uint256"
        }
      ],
      "name": "AddSubject",
      "type": "event"
    },
    {
      "anonymous": false,
      "inputs": [
        {
          "indexed": false,
          "name": "msgSender",
          "type": "address"
        },
        {
          "indexed": false,
          "name": "msg",
          "type": "bytes32"
        },
        {
          "indexed": false,
          "name": "timestamp",
          "type": "uint256"
        }
      ],
      "name": "AddDataPoint",
      "type": "event"
    },
    {
      "constant": true,
      "inputs": [],
      "name": "getSubjectsCount",
      "outputs": [
        {
          "name": "_counter",
          "type": "uint256"
        }
      ],
      "payable": false,
      "stateMutability": "view",
      "type": "function"
    },
    {
      "constant": true,
      "inputs": [
        {
          "name": "_id",
          "type": "uint256"
        }
      ],
      "name": "getSubjectById",
      "outputs": [
        {
          "name": "_subject",
          "type": "bytes32"
        }
      ],
      "payable": false,
      "stateMutability": "view",
      "type": "function"
    },
    {
      "constant": true,
      "inputs": [
        {
          "name": "_subjectId",
          "type": "uint256"
        }
      ],
      "name": "getDataCounterForSubject",
      "outputs": [
        {
          "name": "_counter",
          "type": "uint256"
        }
      ],
      "payable": false,
      "stateMutability": "view",
      "type": "function"
    },
    {
      "constant": true,
      "inputs": [
        {
          "name": "_subjectId",
          "type": "uint256"
        }
      ],
      "name": "getSubjectIdentById",
      "outputs": [
        {
          "name": "_ident",
          "type": "bytes32"
        }
      ],
      "payable": false,
      "stateMutability": "view",
      "type": "function"
    },
    {
      "constant": true,
      "inputs": [
        {
          "name": "_subjectId",
          "type": "uint256"
        },
        {
          "name": "_dataPointId",
          "type": "uint256"
        }
      ],
      "name": "getDataPointForSubject",
      "outputs": [
        {
          "name": "_timestamp",
          "type": "uint256"
        },
        {
          "name": "_json",
          "type": "bytes32"
        }
      ],
      "payable": false,
      "stateMutability": "view",
      "type": "function"
    },
    {
      "constant": false,
      "inputs": [
        {
          "name": "_subject",
          "type": "bytes32"
        }
      ],
      "name": "addSubject",
      "outputs": [
        {
          "name": "_success",
          "type": "bool"
        }
      ],
      "payable": false,
      "stateMutability": "nonpayable",
      "type": "function"
    },
    {
      "constant": false,
      "inputs": [
        {
          "name": "_subjectId",
          "type": "uint256"
        },
        {
          "name": "_json",
          "type": "bytes32"
        }
      ],
      "name": "addDataPoint",
      "outputs": [
        {
          "name": "_success",
          "type": "bool"
        }
      ],
      "payable": false,
      "stateMutability": "nonpayable",
      "type": "function"
    }
  ],
  "bytecode": "0x608060405234801561001057600080fd5b50604051610cae380380610cae83398101806040528101908080519060200190929190805190602001909291908051906020019092919080519060200190929190805190602001909291908051820192919060200180518201929190505050856000806101000a81548173ffffffffffffffffffffffffffffffffffffffff021916908373ffffffffffffffffffffffffffffffffffffffff16021790555086600160006101000a81548173ffffffffffffffffffffffffffffffffffffffff021916908373ffffffffffffffffffffffffffffffffffffffff160217905550846002819055508360038190555082600481905550816006908051906020019061011b929190610146565b5080600790805190602001906101329291906101c6565b50426005819055505050505050505061026b565b828054600181600116156101000203166002900490600052602060002090601f016020900481019282601f1061018757805160ff19168380011785556101b5565b828001600101855582156101b5579182015b828111156101b4578251825591602001919060010190610199565b5b5090506101c29190610246565b5090565b828054600181600116156101000203166002900490600052602060002090601f016020900481019282601f1061020757805160ff1916838001178555610235565b82800160010185558215610235579182015b82811115610234578251825591602001919060010190610219565b5b5090506102429190610246565b5090565b61026891905b8082111561026457600081600090555060010161024c565b5090565b90565b610a348061027a6000396000f3006080604052600436106100c5576000357c0100000000000000000000000000000000000000000000000000000000900463ffffffff1680630b97bc86146100ca5780630e6e1b3e146100f55780632c4202011461013e5780632dfca4451461017f57806344fbc893146101aa5780634d392e49146101d55780635188ab7b1461021e5780636207c802146102ae578063950d37c5146102f75780639f73bef114610351578063c24a0f8b1461037c578063c623674f146103a7578063cb758a8914610437575b600080fd5b3480156100d657600080fd5b506100df61048a565b6040518082815260200191505060405180910390f35b34801561010157600080fd5b506101246004803603810190808035600019169060200190929190505050610490565b604051808215151515815260200191505060405180910390f35b34801561014a57600080fd5b50610169600480360381019080803590602001909291905050506105a3565b6040518082815260200191505060405180910390f35b34801561018b57600080fd5b506101946105f0565b6040518082815260200191505060405180910390f35b3480156101b657600080fd5b506101bf6105f6565b6040518082815260200191505060405180910390f35b3480156101e157600080fd5b50610200600480360381019080803590602001909291905050506105fc565b60405180826000191660001916815260200191505060405180910390f35b34801561022a57600080fd5b50610233610637565b6040518080602001828103825283818151815260200191508051906020019080838360005b83811015610273578082015181840152602081019050610258565b50505050905090810190601f1680156102a05780820380516001836020036101000a031916815260200191505b509250505060405180910390f35b3480156102ba57600080fd5b506102d9600480360381019080803590602001909291905050506106d5565b60405180826000191660001916815260200191505060405180910390f35b34801561030357600080fd5b5061032c600480360381019080803590602001909291908035906020019092919050505061072d565b6040518083815260200182600019166000191681526020019250505060405180910390f35b34801561035d57600080fd5b5061036661080d565b6040518082815260200191505060405180910390f35b34801561038857600080fd5b5061039161081a565b6040518082815260200191505060405180910390f35b3480156103b357600080fd5b506103bc610820565b6040518080602001828103825283818151815260200191508051906020019080838360005b838110156103fc5780820151818401526020810190506103e1565b50505050905090810190601f1680156104295780820380516001836020036101000a031916815260200191505b509250505060405180910390f35b34801561044357600080fd5b506104706004803603810190808035906020019092919080356000191690602001909291905050506108be565b604051808215151515815260200191505060405180910390f35b60035481565b60008060009054906101000a900473ffffffffffffffffffffffffffffffffffffffff1673ffffffffffffffffffffffffffffffffffffffff163373ffffffffffffffffffffffffffffffffffffffff161415156104ed57600080fd5b60088290806001815401808255809150509060018203906000526020600020016000909192909190915090600019169055507f98f911b35e4f0185da844cf074d0b20f1c07738e062e10a540d0e30abf5ff967338342604051808473ffffffffffffffffffffffffffffffffffffffff1673ffffffffffffffffffffffffffffffffffffffff1681526020018360001916600019168152602001828152602001935050505060405180910390a160019050919050565b600080600880549050831015156105bd57600091506105ea565b6105c6836106d5565b90506009600082600019166000191681526020019081526020016000208054905091505b50919050565b60025481565b60055481565b6000600880549050821015156106155760009050610632565b60088281548110151561062457fe5b906000526020600020015490505b919050565b60068054600181600116156101000203166002900480601f0160208091040260200160405190810160405280929190818152602001828054600181600116156101000203166002900480156106cd5780601f106106a2576101008083540402835291602001916106cd565b820191906000526020600020905b8154815290600101906020018083116106b057829003601f168201915b505050505081565b6000600880549050821015156106ee5760009050610728565b6008828154811015156106fd57fe5b9060005260206000200154604051808260001916600019168152602001915050604051809103902090505b919050565b60008060006008805490508510151561074d576000925060009150610805565b610756856106d5565b9050600960008260001916600019168152602001908152602001600020805490508410151561078c576000925060009150610805565b600960008260001916600019168152602001908152602001600020848154811015156107b457fe5b9060005260206000209060020201600001549250600960008260001916600019168152602001908152602001600020848154811015156107f057fe5b90600052602060002090600202016001015491505b509250929050565b6000600880549050905090565b60045481565b60078054600181600116156101000203166002900480601f0160208091040260200160405190810160405280929190818152602001828054600181600116156101000203166002900480156108b65780601f1061088b576101008083540402835291602001916108b6565b820191906000526020600020905b81548152906001019060200180831161089957829003601f168201915b505050505081565b6000806108c96109eb565b6000809054906101000a900473ffffffffffffffffffffffffffffffffffffffff1673ffffffffffffffffffffffffffffffffffffffff163373ffffffffffffffffffffffffffffffffffffffff1614151561092457600080fd5b600354421080610935575060045442115b1561093f57600080fd5b6008805490508510151561095257600080fd5b61095b856106d5565b91504281600001818152505083816020019060001916908160001916815250506009600083600019166000191681526020019081526020016000208190806001815401808255809150509060018203906000526020600020906002020160009091929091909150600082015181600001556020820151816001019060001916905550505060019250505092915050565b6040805190810160405280600081526020016000801916815250905600a165627a7a72305820b34080113d10bc079eb6d4f0fd2df47bb17d21290c23b60992afc7c9771372970029",
  "source": "pragma solidity ^0.4.4;\n\nimport \"./Regulator.sol\";\n\ncontract ClinicalTrial {\n\n   address cro;\n   address regulator;\n\n   uint public proposalId;\n\n   uint public startDate;\n   uint public endDate;\n   uint public createdDate;\n\n   string public drugName;\n   bytes public ipfsHash;\n\n   event AddSubject(address msgSender,bytes32 msg,uint timestamp);\n   event AddDataPoint(address msgSender,bytes32 msg,uint timestamp);\n\n   struct DataPoint {\n      uint timestamp;\n      bytes32 json;\n   }\n\n   bytes32 [] subjects;\n   mapping(bytes32 => DataPoint[]) data; // index sha3(subjectId)\n\n   modifier croOnly {\n      if(msg.sender != cro) {\n         throw;\n      }\n      _;\n   }\n\n   modifier trialIdOpen {\n      if( now < startDate || now > endDate ) {\n         throw;\n      }\n      _;\n   }\n\n   modifier dateBeforeStart {\n      if( now > startDate ) {\n         throw;\n      }\n      _;\n   }\n\n   function ClinicalTrial(address _regulator, address _cro, uint _proposalId, uint _startDate, uint _endDate,string _drugName, bytes _ipfsHash) {\n      cro = _cro;\n      regulator = _regulator;\n      proposalId = _proposalId;\n      startDate = _startDate;\n      endDate = _endDate;\n      drugName = _drugName;\n      ipfsHash = _ipfsHash;\n      createdDate = now;\n   }\n\n   function getSubjectsCount() constant returns (uint _counter) {\n      _counter = subjects.length;\n   }\n\n   function getSubjectById(uint _id) constant returns (bytes32 _subject) {\n      if( _id >= subjects.length ) {\n         _subject = \"\";\n         return;\n      }\n      _subject = subjects[_id];\n   }\n\n   function getDataCounterForSubject(uint _subjectId) constant returns (uint _counter) {\n      if( _subjectId >= subjects.length ) {\n         _counter = 0;\n         return;\n      }\n      bytes32 ident = getSubjectIdentById(_subjectId);\n      _counter = data[ident].length;\n   }\n\n   function getSubjectIdentById(uint _subjectId) constant returns (bytes32 _ident) {\n      if( _subjectId >= subjects.length ) {\n         _ident = \"\";\n         return;\n      }\n      _ident = sha3(subjects[_subjectId]);\n   }\n\n   function getDataPointForSubject(uint _subjectId, uint _dataPointId) constant returns (uint _timestamp, bytes32 _json) {\n      if( _subjectId >= subjects.length ) {\n         _timestamp = 0;\n         _json = \"\";\n         return;\n      }\n\n      bytes32 ident = getSubjectIdentById(_subjectId);\n      if(_dataPointId >= data[ident].length) {\n         _timestamp = 0;\n         _json = \"\";\n         return;\n      }\n\n      _timestamp = data[ident][_dataPointId].timestamp;\n      _json = data[ident][_dataPointId].json;\n   }\n\n   // add modifier dateBeforeStart in the production release\n   function addSubject(bytes32 _subject) croOnly returns (bool _success)  {\n      subjects.push(_subject);\n      AddSubject(msg.sender,_subject,block.timestamp);\n      return true;\n   }\n\n   // add modifier trialIdOpen in the production release\n   function addDataPoint(uint _subjectId, bytes32 _json) croOnly trialIdOpen returns (bool _success)  {\n      if( _subjectId >= subjects.length ) {\n         throw;\n      }\n\n      bytes32 ident = getSubjectIdentById(_subjectId);\n      DataPoint memory dp;\n      dp.timestamp = now;\n      dp.json = _json;\n\n      data[ident].push(dp);\n      return true;\n   }\n}\n",
  "sourcePath": "C:\\Starter_kit\\contracts\\ClinicalTrial.sol",
  "compiler": {
    "name": "solc",
    "version": "0.4.26+commit.4563c3fc.Emscripten.clang"
  },
  "schemaVersion": "3.4.13",
  "updatedAt": "2023-04-28T21:39:47.142Z",
  "networkType": "ethereum",
  "devdoc": {
    "methods": {}
  },
  "userdoc": {
    "methods": {}
  }
}