{
  "contractName": "Regulator",
  "abi": [
    {
      "inputs": [],
      "payable": false,
      "stateMutability": "nonpayable",
      "type": "constructor"
    },
    {
      "anonymous": false,
      "inputs": [
        {
          "indexed": false,
          "name": "msgSender",
          "type": "address"
        },
        {
          "indexed": false,
          "name": "msg",
          "type": "string"
        },
        {
          "indexed": false,
          "name": "timestamp",
          "type": "uint256"
        }
      ],
      "name": "ProposalSubmitted",
      "type": "event"
    },
    {
      "anonymous": false,
      "inputs": [
        {
          "indexed": false,
          "name": "msgSender",
          "type": "address"
        },
        {
          "indexed": false,
          "name": "msg",
          "type": "string"
        },
        {
          "indexed": false,
          "name": "timestamp",
          "type": "uint256"
        }
      ],
      "name": "ProposalAccepted",
      "type": "event"
    },
    {
      "anonymous": false,
      "inputs": [
        {
          "indexed": false,
          "name": "msgSender",
          "type": "address"
        },
        {
          "indexed": false,
          "name": "msg",
          "type": "string"
        },
        {
          "indexed": false,
          "name": "timestamp",
          "type": "uint256"
        }
      ],
      "name": "ProposalRejected",
      "type": "event"
    },
    {
      "anonymous": false,
      "inputs": [
        {
          "indexed": false,
          "name": "msgSender",
          "type": "address"
        },
        {
          "indexed": false,
          "name": "msg",
          "type": "bytes32"
        },
        {
          "indexed": false,
          "name": "timestamp",
          "type": "uint256"
        }
      ],
      "name": "AddCRO",
      "type": "event"
    },
    {
      "anonymous": false,
      "inputs": [
        {
          "indexed": false,
          "name": "msgSender",
          "type": "address"
        },
        {
          "indexed": false,
          "name": "msg",
          "type": "bytes32"
        },
        {
          "indexed": false,
          "name": "timestamp",
          "type": "uint256"
        }
      ],
      "name": "UpdateCROStatus",
      "type": "event"
    },
    {
      "anonymous": false,
      "inputs": [
        {
          "indexed": false,
          "name": "msgSender",
          "type": "address"
        },
        {
          "indexed": false,
          "name": "msg",
          "type": "bytes32"
        },
        {
          "indexed": false,
          "name": "timestamp",
          "type": "uint256"
        }
      ],
      "name": "RegulatoryContractDeployed",
      "type": "event"
    },
    {
      "anonymous": false,
      "inputs": [
        {
          "indexed": false,
          "name": "msgSender",
          "type": "address"
        },
        {
          "indexed": false,
          "name": "msg",
          "type": "bytes32"
        },
        {
          "indexed": false,
          "name": "timestamp",
          "type": "uint256"
        }
      ],
      "name": "ClinicalTrialContractDeployed",
      "type": "event"
    },
    {
      "anonymous": false,
      "inputs": [
        {
          "indexed": false,
          "name": "msgSender",
          "type": "address"
        },
        {
          "indexed": false,
          "name": "msg",
          "type": "bytes"
        },
        {
          "indexed": false,
          "name": "timestamp",
          "type": "uint256"
        }
      ],
      "name": "UploadTrialProtocol",
      "type": "event"
    },
    {
      "constant": false,
      "inputs": [
        {
          "name": "_drugName",
          "type": "string"
        },
        {
          "name": "_startDate",
          "type": "uint32"
        },
        {
          "name": "_endDate",
          "type": "uint32"
        }
      ],
      "name": "submitProposal",
      "outputs": [],
      "payable": false,
      "stateMutability": "nonpayable",
      "type": "function"
    },
    {
      "constant": true,
      "inputs": [
        {
          "name": "_id",
          "type": "uint32"
        },
        {
          "name": "_docHash",
          "type": "bytes"
        }
      ],
      "name": "submitTrialProtocolDocument",
      "outputs": [
        {
          "name": "_docIpfsHash",
          "type": "bytes"
        }
      ],
      "payable": false,
      "stateMutability": "view",
      "type": "function"
    },
    {
      "constant": true,
      "inputs": [],
      "name": "getProposalsCount",
      "outputs": [
        {
          "name": "_counter",
          "type": "uint256"
        }
      ],
      "payable": false,
      "stateMutability": "view",
      "type": "function"
    },
    {
      "constant": true,
      "inputs": [
        {
          "name": "_id",
          "type": "uint32"
        }
      ],
      "name": "getProposalById",
      "outputs": [
        {
          "name": "_croAddr",
          "type": "address"
        },
        {
          "name": "_drugName",
          "type": "string"
        },
        {
          "name": "_startDate",
          "type": "uint32"
        },
        {
          "name": "_endDate",
          "type": "uint32"
        },
        {
          "name": "_ipfsHash",
          "type": "bytes"
        },
        {
          "name": "_status",
          "type": "int256"
        },
        {
          "name": "_trial",
          "type": "address"
        }
      ],
      "payable": false,
      "stateMutability": "view",
      "type": "function"
    },
    {
      "constant": true,
      "inputs": [
        {
          "name": "_id",
          "type": "uint256"
        }
      ],
      "name": "acceptProposal",
      "outputs": [
        {
          "name": "_clinicalTrial",
          "type": "address"
        }
      ],
      "payable": false,
      "stateMutability": "view",
      "type": "function"
    },
    {
      "constant": false,
      "inputs": [
        {
          "name": "_id",
          "type": "uint256"
        }
      ],
      "name": "rejectProposal",
      "outputs": [],
      "payable": false,
      "stateMutability": "nonpayable",
      "type": "function"
    },
    {
      "constant": false,
      "inputs": [
        {
          "name": "_name",
          "type": "bytes32"
        },
        {
          "name": "_url",
          "type": "bytes32"
        }
      ],
      "name": "submitCro",
      "outputs": [],
      "payable": false,
      "stateMutability": "nonpayable",
      "type": "function"
    },
    {
      "constant": false,
      "inputs": [
        {
          "name": "_addr",
          "type": "address"
        },
        {
          "name": "_status",
          "type": "uint8"
        }
      ],
      "name": "changeCroStatus",
      "outputs": [],
      "payable": false,
      "stateMutability": "nonpayable",
      "type": "function"
    },
    {
      "constant": true,
      "inputs": [],
      "name": "getCrosCounter",
      "outputs": [
        {
          "name": "_counter",
          "type": "uint256"
        }
      ],
      "payable": false,
      "stateMutability": "view",
      "type": "function"
    },
    {
      "constant": true,
      "inputs": [
        {
          "name": "_id",
          "type": "uint256"
        }
      ],
      "name": "getCroById",
      "outputs": [
        {
          "name": "_name",
          "type": "bytes32"
        },
        {
          "name": "_url",
          "type": "bytes32"
        },
        {
          "name": "_addr",
          "type": "address"
        },
        {
          "name": "_status",
          "type": "int256"
        }
      ],
      "payable": false,
      "stateMutability": "view",
      "type": "function"
    }
  ],
  "bytecode": "0x608060405234801561001057600080fd5b50336000806101000a81548173ffffffffffffffffffffffffffffffffffffffff021916908373ffffffffffffffffffffffffffffffffffffffff1602179055507f60f99522b536c17416c6437629f9457c53e08255757ed53dc170c464a6acc9023342604051808373ffffffffffffffffffffffffffffffffffffffff1673ffffffffffffffffffffffffffffffffffffffff168152602001807f4d696e65640000000000000000000000000000000000000000000000000000008152506020018281526020019250505060405180910390a1612d89806100f36000396000f300608060405260043610620000af576000357c0100000000000000000000000000000000000000000000000000000000900463ffffffff1680631d79248114620000b4578063371a4ea814620001405780635b48e66a14620002f457806360c5cc3a14620003475780638ee553cc14620003b757806398e527d3146200044c578063ad615f40146200047a578063bc28d87814620004a8578063e87ece2b14620004d8578063f94a322314620005d0575b600080fd5b348015620000c157600080fd5b506200013e600480360381019080803590602001908201803590602001908080601f0160208091040260200160405190810160405280939291908181526020018383808284378201915050505050509192919290803563ffffffff169060200190929190803563ffffffff16906020019092919050505062000612565b005b3480156200014d57600080fd5b5062000174600480360381019080803563ffffffff169060200190929190505050620008d2565b604051808873ffffffffffffffffffffffffffffffffffffffff1673ffffffffffffffffffffffffffffffffffffffff168152602001806020018763ffffffff1663ffffffff1681526020018663ffffffff1663ffffffff168152602001806020018581526020018473ffffffffffffffffffffffffffffffffffffffff1673ffffffffffffffffffffffffffffffffffffffff168152602001838103835289818151815260200191508051906020019080838360005b83811015620002485780820151818401526020810190506200022b565b50505050905090810190601f168015620002765780820380516001836020036101000a031916815260200191505b50838103825286818151815260200191508051906020019080838360005b83811015620002b157808201518184015260208101905062000294565b50505050905090810190601f168015620002df5780820380516001836020036101000a031916815260200191505b50995050505050505050505060405180910390f35b3480156200030157600080fd5b5062000345600480360381019080803573ffffffffffffffffffffffffffffffffffffffff169060200190929190803560ff16906020019092919050505062000bc1565b005b3480156200035457600080fd5b50620003756004803603810190808035906020019092919050505062000dfc565b604051808273ffffffffffffffffffffffffffffffffffffffff1673ffffffffffffffffffffffffffffffffffffffff16815260200191505060405180910390f35b348015620003c457600080fd5b50620003e560048036038101908080359060200190929190505050620014bd565b60405180856000191660001916815260200184600019166000191681526020018373ffffffffffffffffffffffffffffffffffffffff1673ffffffffffffffffffffffffffffffffffffffff16815260200182815260200194505050505060405180910390f35b3480156200045957600080fd5b5062000464620015b5565b6040518082815260200191505060405180910390f35b3480156200048757600080fd5b5062000492620015c2565b6040518082815260200191505060405180910390f35b348015620004b557600080fd5b50620004d660048036038101908080359060200190929190505050620015cf565b005b348015620004e557600080fd5b5062000552600480360381019080803563ffffffff169060200190929190803590602001908201803590602001908080601f016020809104026020016040519081016040528093929190818152602001838380828437820191505050505050919291929050505062001974565b6040518080602001828103825283818151815260200191508051906020019080838360005b838110156200059457808201518184015260208101905062000577565b50505050905090810190601f168015620005c25780820380516001836020036101000a031916815260200191505b509250505060405180910390f35b348015620005dd57600080fd5b50620006106004803603810190808035600019169060200190929190803560001916906020019092919050505062001d12565b005b6200061c62001ead565b33816000019073ffffffffffffffffffffffffffffffffffffffff16908173ffffffffffffffffffffffffffffffffffffffff168152505083816020018190525082816040019063ffffffff16908163ffffffff168152505081816060019063ffffffff16908163ffffffff168152505060008160a00181815250506002819080600181540180825580915050906001820390600052602060002090600602016000909192909190915060008201518160000160006101000a81548173ffffffffffffffffffffffffffffffffffffffff021916908373ffffffffffffffffffffffffffffffffffffffff16021790555060208201518160010190805190602001906200072b92919062001f23565b5060408201518160020160006101000a81548163ffffffff021916908363ffffffff16021790555060608201518160020160046101000a81548163ffffffff021916908363ffffffff16021790555060808201518160030190805190602001906200079892919062001faa565b5060a0820151816004015560c08201518160050160006101000a81548173ffffffffffffffffffffffffffffffffffffffff021916908373ffffffffffffffffffffffffffffffffffffffff1602179055505050507f9b8fe1cd55a87b8f5eaa48960ac278de3e998ca69ab086083cae48e7e464500e33826020015142604051808473ffffffffffffffffffffffffffffffffffffffff1673ffffffffffffffffffffffffffffffffffffffff16815260200180602001838152602001828103825284818151815260200191508051906020019080838360005b838110156200088f57808201518184015260208101905062000872565b50505050905090810190601f168015620008bd5780820380516001836020036101000a031916815260200191505b5094505050505060405180910390a150505050565b600060606000806060600080620008e862001ead565b6002805490508963ffffffff16101515620009035762000bb5565b60028963ffffffff168154811015156200091957fe5b906000526020600020906006020160e060405190810160405290816000820160009054906101000a900473ffffffffffffffffffffffffffffffffffffffff1673ffffffffffffffffffffffffffffffffffffffff1673ffffffffffffffffffffffffffffffffffffffff168152602001600182018054600181600116156101000203166002900480601f01602080910402602001604051908101604052809291908181526020018280546001816001161561010002031660029004801562000a265780601f10620009fa5761010080835404028352916020019162000a26565b820191906000526020600020905b81548152906001019060200180831162000a0857829003601f168201915b505050505081526020016002820160009054906101000a900463ffffffff1663ffffffff1663ffffffff1681526020016002820160049054906101000a900463ffffffff1663ffffffff1663ffffffff168152602001600382018054600181600116156101000203166002900480601f01602080910402602001604051908101604052809291908181526020018280546001816001161561010002031660029004801562000b185780601f1062000aec5761010080835404028352916020019162000b18565b820191906000526020600020905b81548152906001019060200180831162000afa57829003601f168201915b50505050508152602001600482015481526020016005820160009054906101000a900473ffffffffffffffffffffffffffffffffffffffff1673ffffffffffffffffffffffffffffffffffffffff1673ffffffffffffffffffffffffffffffffffffffff1681525050905080600001519750806020015196508060400151955080606001519450806080015193508060a0015192508060c0015191505b50919395979092949650565b60008090505b6001805490508163ffffffff16101562000df7578273ffffffffffffffffffffffffffffffffffffffff1660018263ffffffff1681548110151562000c0857fe5b906000526020600020906004020160020160009054906101000a900473ffffffffffffffffffffffffffffffffffffffff1673ffffffffffffffffffffffffffffffffffffffff16141562000de9578160ff1660018263ffffffff1681548110151562000c7157fe5b9060005260206000209060040201600301819055506001808263ffffffff1681548110151562000c9d57fe5b906000526020600020906004020160030154141562000d4f577fd0a366159e9fa1410c9f032dd079ba3daef51d24793fa4122b2ab3ca86afd7d63342604051808373ffffffffffffffffffffffffffffffffffffffff1673ffffffffffffffffffffffffffffffffffffffff168152602001807f417070726f7665640000000000000000000000000000000000000000000000008152506020018281526020019250505060405180910390a162000de3565b7fd0a366159e9fa1410c9f032dd079ba3daef51d24793fa4122b2ab3ca86afd7d63342604051808373ffffffffffffffffffffffffffffffffffffffff1673ffffffffffffffffffffffffffffffffffffffff168152602001807f52656a65637465640000000000000000000000000000000000000000000000008152506020018281526020019250505060405180910390a15b62000df7565b808060010191505062000bc7565b505050565b600062000e0862001ead565b60006002805490508410151562000e1e57600080fd5b60028481548110151562000e2e57fe5b906000526020600020906006020160e060405190810160405290816000820160009054906101000a900473ffffffffffffffffffffffffffffffffffffffff1673ffffffffffffffffffffffffffffffffffffffff1673ffffffffffffffffffffffffffffffffffffffff168152602001600182018054600181600116156101000203166002900480601f01602080910402602001604051908101604052809291908181526020018280546001816001161561010002031660029004801562000f3b5780601f1062000f0f5761010080835404028352916020019162000f3b565b820191906000526020600020905b81548152906001019060200180831162000f1d57829003601f168201915b505050505081526020016002820160009054906101000a900463ffffffff1663ffffffff1663ffffffff1681526020016002820160049054906101000a900463ffffffff1663ffffffff1663ffffffff168152602001600382018054600181600116156101000203166002900480601f0160208091040260200160405190810160405280929190818152602001828054600181600116156101000203166002900480156200102d5780601f1062001001576101008083540402835291602001916200102d565b820191906000526020600020905b8154815290600101906020018083116200100f57829003601f168201915b50505050508152602001600482015481526020016005820160009054906101000a900473ffffffffffffffffffffffffffffffffffffffff1673ffffffffffffffffffffffffffffffffffffffff1673ffffffffffffffffffffffffffffffffffffffff1681525050915060018260a001511415620010ab57600080fd5b6000809054906101000a900473ffffffffffffffffffffffffffffffffffffffff168260000151858460400151856060015186602001518760800151620010f162002031565b808873ffffffffffffffffffffffffffffffffffffffff1673ffffffffffffffffffffffffffffffffffffffff1681526020018773ffffffffffffffffffffffffffffffffffffffff1673ffffffffffffffffffffffffffffffffffffffff1681526020018681526020018563ffffffff1681526020018463ffffffff1681526020018060200180602001838103835285818151815260200191508051906020019080838360005b83811015620011b657808201518184015260208101905062001199565b50505050905090810190601f168015620011e45780820380516001836020036101000a031916815260200191505b50838103825284818151815260200191508051906020019080838360005b838110156200121f57808201518184015260208101905062001202565b50505050905090810190601f1680156200124d5780820380516001836020036101000a031916815260200191505b509950505050505050505050604051809103906000f08015801562001276573d6000803e3d6000fd5b509050806002858154811015156200128a57fe5b906000526020600020906006020160050160006101000a81548173ffffffffffffffffffffffffffffffffffffffff021916908373ffffffffffffffffffffffffffffffffffffffff1602179055506001600285815481101515620012eb57fe5b9060005260206000209060060201600401819055506002848154811015156200131057fe5b906000526020600020906006020160050160009054906101000a900473ffffffffffffffffffffffffffffffffffffffff1692507fd29ade1e3a300b482c509341e299b42829b8abd4a712c805a75c05ed240ba73433836020015142604051808473ffffffffffffffffffffffffffffffffffffffff1673ffffffffffffffffffffffffffffffffffffffff16815260200180602001838152602001828103825284818151815260200191508051906020019080838360005b83811015620013e6578082015181840152602081019050620013c9565b50505050905090810190601f168015620014145780820380516001836020036101000a031916815260200191505b5094505050505060405180910390a17f5fc9d0988c060f868f8303a7fe9cd8cfacef63b532592ff3f1bf39d4740d20183342604051808373ffffffffffffffffffffffffffffffffffffffff1673ffffffffffffffffffffffffffffffffffffffff168152602001807f4d696e65640000000000000000000000000000000000000000000000000000008152506020018281526020019250505060405180910390a15050919050565b600080600080620014cd62002042565b60018054905086101515620014e157600080fd5b600186815481101515620014f157fe5b9060005260206000209060040201608060405190810160405290816000820154600019166000191681526020016001820154600019166000191681526020016002820160009054906101000a900473ffffffffffffffffffffffffffffffffffffffff1673ffffffffffffffffffffffffffffffffffffffff1673ffffffffffffffffffffffffffffffffffffffff168152602001600382015481525050905080600001519450806020015193508060400151925080606001519150509193509193565b6000600280549050905090565b6000600180549050905090565b620015d962001ead565b60028054905082101515620015ed57600080fd5b60028083815481101515620015fe57fe5b9060005260206000209060060201600401819055506002828154811015156200162357fe5b906000526020600020906006020160e060405190810160405290816000820160009054906101000a900473ffffffffffffffffffffffffffffffffffffffff1673ffffffffffffffffffffffffffffffffffffffff1673ffffffffffffffffffffffffffffffffffffffff168152602001600182018054600181600116156101000203166002900480601f016020809104026020016040519081016040528092919081815260200182805460018160011615610100020316600290048015620017305780601f10620017045761010080835404028352916020019162001730565b820191906000526020600020905b8154815290600101906020018083116200171257829003601f168201915b505050505081526020016002820160009054906101000a900463ffffffff1663ffffffff1663ffffffff1681526020016002820160049054906101000a900463ffffffff1663ffffffff1663ffffffff168152602001600382018054600181600116156101000203166002900480601f016020809104026020016040519081016040528092919081815260200182805460018160011615610100020316600290048015620018225780601f10620017f65761010080835404028352916020019162001822565b820191906000526020600020905b8154815290600101906020018083116200180457829003601f168201915b50505050508152602001600482015481526020016005820160009054906101000a900473ffffffffffffffffffffffffffffffffffffffff1673ffffffffffffffffffffffffffffffffffffffff1673ffffffffffffffffffffffffffffffffffffffff168152505090507f1267d8c836d47ed2b07b441ddf7083502153ac84a1b163ecc0d1001948f4f8bc8160000151826020015184604051808473ffffffffffffffffffffffffffffffffffffffff1673ffffffffffffffffffffffffffffffffffffffff16815260200180602001838152602001828103825284818151815260200191508051906020019080838360005b838110156200193357808201518184015260208101905062001916565b50505050905090810190601f168015620019615780820380516001836020036101000a031916815260200191505b5094505050505060405180910390a15050565b60606200198062001ead565b6002805490508463ffffffff161015156200199b5762001d0b565b60028463ffffffff16815481101515620019b157fe5b906000526020600020906006020160e060405190810160405290816000820160009054906101000a900473ffffffffffffffffffffffffffffffffffffffff1673ffffffffffffffffffffffffffffffffffffffff1673ffffffffffffffffffffffffffffffffffffffff168152602001600182018054600181600116156101000203166002900480601f01602080910402602001604051908101604052809291908181526020018280546001816001161561010002031660029004801562001abe5780601f1062001a925761010080835404028352916020019162001abe565b820191906000526020600020905b81548152906001019060200180831162001aa057829003601f168201915b505050505081526020016002820160009054906101000a900463ffffffff1663ffffffff1663ffffffff1681526020016002820160049054906101000a900463ffffffff1663ffffffff1663ffffffff168152602001600382018054600181600116156101000203166002900480601f01602080910402602001604051908101604052809291908181526020018280546001816001161561010002031660029004801562001bb05780601f1062001b845761010080835404028352916020019162001bb0565b820191906000526020600020905b81548152906001019060200180831162001b9257829003601f168201915b50505050508152602001600482015481526020016005820160009054906101000a900473ffffffffffffffffffffffffffffffffffffffff1673ffffffffffffffffffffffffffffffffffffffff1673ffffffffffffffffffffffffffffffffffffffff16815250509050828160800181905250806080015191507fe9f5c2c5764f71d4bade320ab7bae394f9eec12984930a09249dee6d92ea8b2d33826080015142604051808473ffffffffffffffffffffffffffffffffffffffff1673ffffffffffffffffffffffffffffffffffffffff16815260200180602001838152602001828103825284818151815260200191508051906020019080838360005b8381101562001ccd57808201518184015260208101905062001cb0565b50505050905090810190601f16801562001cfb5780820380516001836020036101000a031916815260200191505b5094505050505060405180910390a15b5092915050565b62001d1c62002042565b8281600001906000191690816000191681525050818160200190600019169081600019168152505033816040019073ffffffffffffffffffffffffffffffffffffffff16908173ffffffffffffffffffffffffffffffffffffffff1681525050600081606001818152505060018190806001815401808255809150509060018203906000526020600020906004020160009091929091909150600082015181600001906000191690556020820151816001019060001916905560408201518160020160006101000a81548173ffffffffffffffffffffffffffffffffffffffff021916908373ffffffffffffffffffffffffffffffffffffffff160217905550606082015181600301555050507f4692aac2d0f6b8fd9e4dd5bd1b720129986808c1005bd78af4a8190337c8542233826000015142604051808473ffffffffffffffffffffffffffffffffffffffff1673ffffffffffffffffffffffffffffffffffffffff1681526020018360001916600019168152602001828152602001935050505060405180910390a1505050565b60e060405190810160405280600073ffffffffffffffffffffffffffffffffffffffff16815260200160608152602001600063ffffffff168152602001600063ffffffff1681526020016060815260200160008152602001600073ffffffffffffffffffffffffffffffffffffffff1681525090565b828054600181600116156101000203166002900490600052602060002090601f016020900481019282601f1062001f6657805160ff191683800117855562001f97565b8280016001018555821562001f97579182015b8281111562001f9657825182559160200191906001019062001f79565b5b50905062001fa6919062002087565b5090565b828054600181600116156101000203166002900490600052602060002090601f016020900481019282601f1062001fed57805160ff19168380011785556200201e565b828001600101855582156200201e579182015b828111156200201d57825182559160200191906001019062002000565b5b5090506200202d919062002087565b5090565b604051610cae80620020b083390190565b6080604051908101604052806000801916815260200160008019168152602001600073ffffffffffffffffffffffffffffffffffffffff168152602001600081525090565b620020ac91905b80821115620020a85760008160009055506001016200208e565b5090565b905600608060405234801561001057600080fd5b50604051610cae380380610cae83398101806040528101908080519060200190929190805190602001909291908051906020019092919080519060200190929190805190602001909291908051820192919060200180518201929190505050856000806101000a81548173ffffffffffffffffffffffffffffffffffffffff021916908373ffffffffffffffffffffffffffffffffffffffff16021790555086600160006101000a81548173ffffffffffffffffffffffffffffffffffffffff021916908373ffffffffffffffffffffffffffffffffffffffff160217905550846002819055508360038190555082600481905550816006908051906020019061011b929190610146565b5080600790805190602001906101329291906101c6565b50426005819055505050505050505061026b565b828054600181600116156101000203166002900490600052602060002090601f016020900481019282601f1061018757805160ff19168380011785556101b5565b828001600101855582156101b5579182015b828111156101b4578251825591602001919060010190610199565b5b5090506101c29190610246565b5090565b828054600181600116156101000203166002900490600052602060002090601f016020900481019282601f1061020757805160ff1916838001178555610235565b82800160010185558215610235579182015b82811115610234578251825591602001919060010190610219565b5b5090506102429190610246565b5090565b61026891905b8082111561026457600081600090555060010161024c565b5090565b90565b610a348061027a6000396000f3006080604052600436106100c5576000357c0100000000000000000000000000000000000000000000000000000000900463ffffffff1680630b97bc86146100ca5780630e6e1b3e146100f55780632c4202011461013e5780632dfca4451461017f57806344fbc893146101aa5780634d392e49146101d55780635188ab7b1461021e5780636207c802146102ae578063950d37c5146102f75780639f73bef114610351578063c24a0f8b1461037c578063c623674f146103a7578063cb758a8914610437575b600080fd5b3480156100d657600080fd5b506100df61048a565b6040518082815260200191505060405180910390f35b34801561010157600080fd5b506101246004803603810190808035600019169060200190929190505050610490565b604051808215151515815260200191505060405180910390f35b34801561014a57600080fd5b50610169600480360381019080803590602001909291905050506105a3565b6040518082815260200191505060405180910390f35b34801561018b57600080fd5b506101946105f0565b6040518082815260200191505060405180910390f35b3480156101b657600080fd5b506101bf6105f6565b6040518082815260200191505060405180910390f35b3480156101e157600080fd5b50610200600480360381019080803590602001909291905050506105fc565b60405180826000191660001916815260200191505060405180910390f35b34801561022a57600080fd5b50610233610637565b6040518080602001828103825283818151815260200191508051906020019080838360005b83811015610273578082015181840152602081019050610258565b50505050905090810190601f1680156102a05780820380516001836020036101000a031916815260200191505b509250505060405180910390f35b3480156102ba57600080fd5b506102d9600480360381019080803590602001909291905050506106d5565b60405180826000191660001916815260200191505060405180910390f35b34801561030357600080fd5b5061032c600480360381019080803590602001909291908035906020019092919050505061072d565b6040518083815260200182600019166000191681526020019250505060405180910390f35b34801561035d57600080fd5b5061036661080d565b6040518082815260200191505060405180910390f35b34801561038857600080fd5b5061039161081a565b6040518082815260200191505060405180910390f35b3480156103b357600080fd5b506103bc610820565b6040518080602001828103825283818151815260200191508051906020019080838360005b838110156103fc5780820151818401526020810190506103e1565b50505050905090810190601f1680156104295780820380516001836020036101000a031916815260200191505b509250505060405180910390f35b34801561044357600080fd5b506104706004803603810190808035906020019092919080356000191690602001909291905050506108be565b604051808215151515815260200191505060405180910390f35b60035481565b60008060009054906101000a900473ffffffffffffffffffffffffffffffffffffffff1673ffffffffffffffffffffffffffffffffffffffff163373ffffffffffffffffffffffffffffffffffffffff161415156104ed57600080fd5b60088290806001815401808255809150509060018203906000526020600020016000909192909190915090600019169055507f98f911b35e4f0185da844cf074d0b20f1c07738e062e10a540d0e30abf5ff967338342604051808473ffffffffffffffffffffffffffffffffffffffff1673ffffffffffffffffffffffffffffffffffffffff1681526020018360001916600019168152602001828152602001935050505060405180910390a160019050919050565b600080600880549050831015156105bd57600091506105ea565b6105c6836106d5565b90506009600082600019166000191681526020019081526020016000208054905091505b50919050565b60025481565b60055481565b6000600880549050821015156106155760009050610632565b60088281548110151561062457fe5b906000526020600020015490505b919050565b60068054600181600116156101000203166002900480601f0160208091040260200160405190810160405280929190818152602001828054600181600116156101000203166002900480156106cd5780601f106106a2576101008083540402835291602001916106cd565b820191906000526020600020905b8154815290600101906020018083116106b057829003601f168201915b505050505081565b6000600880549050821015156106ee5760009050610728565b6008828154811015156106fd57fe5b9060005260206000200154604051808260001916600019168152602001915050604051809103902090505b919050565b60008060006008805490508510151561074d576000925060009150610805565b610756856106d5565b9050600960008260001916600019168152602001908152602001600020805490508410151561078c576000925060009150610805565b600960008260001916600019168152602001908152602001600020848154811015156107b457fe5b9060005260206000209060020201600001549250600960008260001916600019168152602001908152602001600020848154811015156107f057fe5b90600052602060002090600202016001015491505b509250929050565b6000600880549050905090565b60045481565b60078054600181600116156101000203166002900480601f0160208091040260200160405190810160405280929190818152602001828054600181600116156101000203166002900480156108b65780601f1061088b576101008083540402835291602001916108b6565b820191906000526020600020905b81548152906001019060200180831161089957829003601f168201915b505050505081565b6000806108c96109eb565b6000809054906101000a900473ffffffffffffffffffffffffffffffffffffffff1673ffffffffffffffffffffffffffffffffffffffff163373ffffffffffffffffffffffffffffffffffffffff1614151561092457600080fd5b600354421080610935575060045442115b1561093f57600080fd5b6008805490508510151561095257600080fd5b61095b856106d5565b91504281600001818152505083816020019060001916908160001916815250506009600083600019166000191681526020019081526020016000208190806001815401808255809150509060018203906000526020600020906002020160009091929091909150600082015181600001556020820151816001019060001916905550505060019250505092915050565b6040805190810160405280600081526020016000801916815250905600a165627a7a72305820b34080113d10bc079eb6d4f0fd2df47bb17d21290c23b60992afc7c9771372970029a165627a7a72305820a313f35d5126ea6b56d56cace063f5eacc434854526dc85876a4994397dd36c00029",
  "source": "pragma solidity ^0.4.4;\n\nimport \"./ClinicalTrial.sol\";\n\ncontract Regulator {\n\n   address owner;\n   int constant STATUS_SUBMITTED = 0;\n   int constant STATUS_ACCEPTED  = 1;\n   int constant STATUS_REJECTED  = 2;\n\n   event ProposalSubmitted(address msgSender,string msg,uint timestamp);\n   event ProposalAccepted (address msgSender,string msg,uint timestamp);\n   event ProposalRejected (address msgSender,string msg,uint timestamp);\n\n   event AddCRO (address msgSender,bytes32 msg,uint timestamp);\n   event UpdateCROStatus (address msgSender,bytes32 msg,uint timestamp);\n   event RegulatoryContractDeployed (address msgSender,bytes32 msg,uint timestamp);\n   event ClinicalTrialContractDeployed (address msgSender,bytes32 msg,uint timestamp);\n   event UploadTrialProtocol (address msgSender,bytes msg,uint timestamp);\n\n   struct CroIdentity {\n      bytes32  name;\n      bytes32  url;\n      address addr;\n      int   status;  //values: SUBMITTED, ACCEPTED, REJECTED\n   }\n\n   struct TrialProposal {\n      address croAddr;\n      string  drugName;\n      uint32  startDate;\n      uint32  endDate;\n      bytes  ipfsHash;\n      int   status; // values: SUBMITTED, ACCEPTED, REJECTED\n      address trial;  // clinical trial contract; 0x0 if none\n   }\n\n   CroIdentity   [] cros;\n   TrialProposal [] proposals;\n\n   modifier crosOnly {\n      bool found = false;\n      for(uint32 i=0; i<cros.length; i++) {\n         if(cros[i].addr == msg.sender && cros[i].status == STATUS_ACCEPTED) {\n            found = true;\n            break;\n         }\n      }\n      if(!found) throw;\n      _;\n   }\n\n   modifier ownerOnly {\n      if(msg.sender != owner) throw;\n      _;\n   }\n\n   function Regulator() {\n      owner = msg.sender;\n      RegulatoryContractDeployed(msg.sender,\"Mined\",block.timestamp);\n   }\n\n   function submitProposal(string _drugName, uint32 _startDate, uint32 _endDate) {\n\n      TrialProposal memory proposal;\n      proposal.croAddr   = msg.sender;\n      proposal.drugName  = _drugName;\n      proposal.startDate = _startDate;\n      proposal.endDate   = _endDate;\n      proposal.status    = STATUS_SUBMITTED;\n\n      proposals.push(proposal);\n\n      ProposalSubmitted(msg.sender,proposal.drugName,block.timestamp);\n   }\n\n   function submitTrialProtocolDocument(uint32 _id, bytes _docHash) constant returns (bytes _docIpfsHash)\n   {\n      if(_id >= proposals.length) {\n         return;\n      }\n      TrialProposal memory tp = proposals[_id];\n      tp.ipfsHash = _docHash;\n      _docIpfsHash = tp.ipfsHash;\n      UploadTrialProtocol(msg.sender,tp.ipfsHash,block.timestamp);\n   }\n\n   function getProposalsCount() constant returns (uint _counter) {\n      _counter = proposals.length;\n   }\n\n   function getProposalById(uint32 _id) constant returns(address _croAddr, string _drugName, uint32 _startDate, uint32 _endDate, bytes _ipfsHash, int _status, address _trial) {\n      if(_id >= proposals.length) {\n         return;\n      }\n      TrialProposal memory tp = proposals[_id];\n      _croAddr = tp.croAddr;\n      _drugName = tp.drugName;\n      _startDate = tp.startDate;\n      _endDate = tp.endDate;\n      _ipfsHash = tp.ipfsHash;\n      _status = tp.status;\n      _trial = tp.trial;\n   }\n\n   function acceptProposal(uint _id) constant returns (address _clinicalTrial) {\n\n      if(_id >= proposals.length) {\n         throw;\n      }\n\n      TrialProposal memory tp = proposals[_id];\n      if(tp.status == STATUS_ACCEPTED) {\n         throw;\n      }\n\n      // deploy the actual clinical trial contract and return it\n      ClinicalTrial trial = new ClinicalTrial(owner, tp.croAddr, _id, tp.startDate, tp.endDate, tp.drugName, tp.ipfsHash);\n\n      proposals[_id].trial = trial;\n      proposals[_id].status = STATUS_ACCEPTED;\n\n      _clinicalTrial = proposals[_id].trial;\n\n      ProposalAccepted (msg.sender,tp.drugName,block.timestamp);\n      ClinicalTrialContractDeployed(msg.sender,\"Mined\",block.timestamp);\n   }\n\n   function rejectProposal(uint _id) {\n\n      if(_id >= proposals.length) {\n         throw;\n      }\n\n      proposals[_id].status = STATUS_REJECTED;\n\n      TrialProposal memory tp = proposals[_id];\n      ProposalRejected (tp.croAddr, tp.drugName, _id);\n   }\n\n   function submitCro(bytes32 _name, bytes32 _url) {\n      CroIdentity memory cro;\n      cro.name   = _name;\n      cro.url    = _url;\n      cro.addr   = msg.sender;\n      cro.status = STATUS_SUBMITTED;\n\n      cros.push(cro);\n\n      AddCRO(msg.sender,cro.name,block.timestamp);\n   }\n\n   function changeCroStatus(address _addr, uint8 _status) {\n      for(uint32 i=0; i<cros.length; i++) {\n         if(cros[i].addr == _addr) {\n            cros[i].status = _status;\n            if(cros[i].status == STATUS_ACCEPTED)\n            {\n               UpdateCROStatus(msg.sender,\"Approved\",block.timestamp);\n            }\n            else\n            {\n               UpdateCROStatus(msg.sender,\"Rejected\",block.timestamp);\n            }\n            break;\n         }\n      }\n      \n   }\n\n   function getCrosCounter() constant returns (uint _counter) {\n      _counter = cros.length;\n   }\n\n   function getCroById(uint _id) constant returns(bytes32 _name, bytes32 _url, address _addr, int _status) {\n\n      if(_id >= cros.length) {\n         throw;\n      }\n\n      CroIdentity memory ci = cros[_id];\n      _name = ci.name;\n      _url  = ci.url;\n      _addr = ci.addr;\n      _status = ci.status;\n   }\n\n}\n",
  "sourcePath": "C:\\Starter_kit\\contracts\\Regulator.sol",
  "compiler": {
    "name": "solc",
    "version": "0.4.26+commit.4563c3fc.Emscripten.clang"
  },
  "schemaVersion": "3.4.13",
  "updatedAt": "2023-04-28T21:39:47.151Z",
  "networkType": "ethereum",
  "devdoc": {
    "methods": {}
  },
  "userdoc": {
    "methods": {}
  }
}